{
  "_format": "hh-sol-artifact-1",
  "contractName": "PandaCoin",
  "sourceName": "contracts/PandaCoin.sol",
  "abi": [
    {
      "inputs": [],
      "stateMutability": "nonpayable",
      "type": "constructor"
    },
    {
      "anonymous": false,
      "inputs": [
        {
          "indexed": true,
          "internalType": "address",
          "name": "owner",
          "type": "address"
        },
        {
          "indexed": true,
          "internalType": "address",
          "name": "spender",
          "type": "address"
        },
        {
          "indexed": false,
          "internalType": "uint256",
          "name": "value",
          "type": "uint256"
        }
      ],
      "name": "Approval",
      "type": "event"
    },
    {
      "anonymous": false,
      "inputs": [
        {
          "indexed": true,
          "internalType": "address",
          "name": "previousOwner",
          "type": "address"
        },
        {
          "indexed": true,
          "internalType": "address",
          "name": "newOwner",
          "type": "address"
        }
      ],
      "name": "OwnershipTransferred",
      "type": "event"
    },
    {
      "anonymous": false,
      "inputs": [
        {
          "indexed": true,
          "internalType": "address",
          "name": "from",
          "type": "address"
        },
        {
          "indexed": true,
          "internalType": "address",
          "name": "to",
          "type": "address"
        },
        {
          "indexed": false,
          "internalType": "uint256",
          "name": "value",
          "type": "uint256"
        }
      ],
      "name": "Transfer",
      "type": "event"
    },
    {
      "anonymous": false,
      "inputs": [
        {
          "indexed": true,
          "internalType": "address",
          "name": "owner",
          "type": "address"
        },
        {
          "indexed": false,
          "internalType": "uint256",
          "name": "amount",
          "type": "uint256"
        },
        {
          "indexed": false,
          "internalType": "string",
          "name": "message",
          "type": "string"
        }
      ],
      "name": "additionalTokenMinted",
      "type": "event"
    },
    {
      "anonymous": false,
      "inputs": [
        {
          "indexed": true,
          "internalType": "address",
          "name": "owner",
          "type": "address"
        },
        {
          "indexed": false,
          "internalType": "uint256",
          "name": "amount",
          "type": "uint256"
        },
        {
          "indexed": false,
          "internalType": "string",
          "name": "message",
          "type": "string"
        }
      ],
      "name": "tokenBurned",
      "type": "event"
    },
    {
      "anonymous": false,
      "inputs": [
        {
          "indexed": true,
          "internalType": "address",
          "name": "owner",
          "type": "address"
        },
        {
          "indexed": false,
          "internalType": "uint256",
          "name": "amount",
          "type": "uint256"
        },
        {
          "indexed": false,
          "internalType": "string",
          "name": "message",
          "type": "string"
        }
      ],
      "name": "tokenMinted",
      "type": "event"
    },
    {
      "anonymous": false,
      "inputs": [
        {
          "indexed": true,
          "internalType": "address",
          "name": "user",
          "type": "address"
        },
        {
          "indexed": false,
          "internalType": "uint256",
          "name": "amount",
          "type": "uint256"
        },
        {
          "indexed": false,
          "internalType": "string",
          "name": "message",
          "type": "string"
        }
      ],
      "name": "tokenRequested",
      "type": "event"
    },
    {
      "inputs": [
        {
          "internalType": "address",
          "name": "owner",
          "type": "address"
        },
        {
          "internalType": "address",
          "name": "spender",
          "type": "address"
        }
      ],
      "name": "allowance",
      "outputs": [
        {
          "internalType": "uint256",
          "name": "",
          "type": "uint256"
        }
      ],
      "stateMutability": "view",
      "type": "function"
    },
    {
      "inputs": [
        {
          "internalType": "address",
          "name": "spender",
          "type": "address"
        },
        {
          "internalType": "uint256",
          "name": "amount",
          "type": "uint256"
        }
      ],
      "name": "approve",
      "outputs": [
        {
          "internalType": "bool",
          "name": "",
          "type": "bool"
        }
      ],
      "stateMutability": "nonpayable",
      "type": "function"
    },
    {
      "inputs": [
        {
          "internalType": "address",
          "name": "account",
          "type": "address"
        }
      ],
      "name": "balanceOf",
      "outputs": [
        {
          "internalType": "uint256",
          "name": "",
          "type": "uint256"
        }
      ],
      "stateMutability": "view",
      "type": "function"
    },
    {
      "inputs": [
        {
          "internalType": "uint256",
          "name": "_amount",
          "type": "uint256"
        }
      ],
      "name": "burn",
      "outputs": [],
      "stateMutability": "nonpayable",
      "type": "function"
    },
    {
      "inputs": [
        {
          "internalType": "address",
          "name": "account",
          "type": "address"
        },
        {
          "internalType": "uint256",
          "name": "amount",
          "type": "uint256"
        }
      ],
      "name": "burnFrom",
      "outputs": [],
      "stateMutability": "nonpayable",
      "type": "function"
    },
    {
      "inputs": [],
      "name": "decimals",
      "outputs": [
        {
          "internalType": "uint8",
          "name": "",
          "type": "uint8"
        }
      ],
      "stateMutability": "view",
      "type": "function"
    },
    {
      "inputs": [
        {
          "internalType": "address",
          "name": "spender",
          "type": "address"
        },
        {
          "internalType": "uint256",
          "name": "subtractedValue",
          "type": "uint256"
        }
      ],
      "name": "decreaseAllowance",
      "outputs": [
        {
          "internalType": "bool",
          "name": "",
          "type": "bool"
        }
      ],
      "stateMutability": "nonpayable",
      "type": "function"
    },
    {
      "inputs": [
        {
          "internalType": "address",
          "name": "spender",
          "type": "address"
        },
        {
          "internalType": "uint256",
          "name": "addedValue",
          "type": "uint256"
        }
      ],
      "name": "increaseAllowance",
      "outputs": [
        {
          "internalType": "bool",
          "name": "",
          "type": "bool"
        }
      ],
      "stateMutability": "nonpayable",
      "type": "function"
    },
    {
      "inputs": [
        {
          "internalType": "address",
          "name": "_to",
          "type": "address"
        },
        {
          "internalType": "uint256",
          "name": "_amount",
          "type": "uint256"
        }
      ],
      "name": "mint",
      "outputs": [],
      "stateMutability": "nonpayable",
      "type": "function"
    },
    {
      "inputs": [],
      "name": "myTokenBalance",
      "outputs": [
        {
          "internalType": "uint256",
          "name": "",
          "type": "uint256"
        }
      ],
      "stateMutability": "view",
      "type": "function"
    },
    {
      "inputs": [],
      "name": "name",
      "outputs": [
        {
          "internalType": "string",
          "name": "",
          "type": "string"
        }
      ],
      "stateMutability": "view",
      "type": "function"
    },
    {
      "inputs": [],
      "name": "owner",
      "outputs": [
        {
          "internalType": "address",
          "name": "",
          "type": "address"
        }
      ],
      "stateMutability": "view",
      "type": "function"
    },
    {
      "inputs": [],
      "name": "renounceOwnership",
      "outputs": [],
      "stateMutability": "nonpayable",
      "type": "function"
    },
    {
      "inputs": [
        {
          "internalType": "address",
          "name": "_to",
          "type": "address"
        },
        {
          "internalType": "uint256",
          "name": "_amount",
          "type": "uint256"
        }
      ],
      "name": "requestToken",
      "outputs": [],
      "stateMutability": "nonpayable",
      "type": "function"
    },
    {
      "inputs": [],
      "name": "symbol",
      "outputs": [
        {
          "internalType": "string",
          "name": "",
          "type": "string"
        }
      ],
      "stateMutability": "view",
      "type": "function"
    },
    {
      "inputs": [],
      "name": "totalSupply",
      "outputs": [
        {
          "internalType": "uint256",
          "name": "",
          "type": "uint256"
        }
      ],
      "stateMutability": "view",
      "type": "function"
    },
    {
      "inputs": [
        {
          "internalType": "address",
          "name": "to",
          "type": "address"
        },
        {
          "internalType": "uint256",
          "name": "amount",
          "type": "uint256"
        }
      ],
      "name": "transfer",
      "outputs": [
        {
          "internalType": "bool",
          "name": "",
          "type": "bool"
        }
      ],
      "stateMutability": "nonpayable",
      "type": "function"
    },
    {
      "inputs": [
        {
          "internalType": "address",
          "name": "from",
          "type": "address"
        },
        {
          "internalType": "address",
          "name": "to",
          "type": "address"
        },
        {
          "internalType": "uint256",
          "name": "amount",
          "type": "uint256"
        }
      ],
      "name": "transferFrom",
      "outputs": [
        {
          "internalType": "bool",
          "name": "",
          "type": "bool"
        }
      ],
      "stateMutability": "nonpayable",
      "type": "function"
    },
    {
      "inputs": [
        {
          "internalType": "address",
          "name": "newOwner",
          "type": "address"
        }
      ],
      "name": "transferOwnership",
      "outputs": [],
      "stateMutability": "nonpayable",
      "type": "function"
    }
  ],
  "bytecode": "0x60806040523480156200001157600080fd5b506040518060400160405280600981526020017f50616e6461436f696e00000000000000000000000000000000000000000000008152506040518060400160405280600381526020017f5041430000000000000000000000000000000000000000000000000000000000815250816003908051906020019062000096929190620003eb565b508060049080519060200190620000af929190620003eb565b505050620000d2620000c66200019260201b60201c565b6200019a60201b60201c565b6200011033620000e76200026060201b60201c565b600a620000f5919062000635565b6103e862000104919062000686565b6200026960201b60201c565b3373ffffffffffffffffffffffffffffffffffffffff167f4e8729c2e855a7991a6eb099524116e8faf62ab3b5215e97e2bda15c7da2d0b7620001586200026060201b60201c565b600a62000166919062000635565b6103e862000175919062000686565b60405162000184919062000759565b60405180910390a2620008db565b600033905090565b6000600560009054906101000a900473ffffffffffffffffffffffffffffffffffffffff16905081600560006101000a81548173ffffffffffffffffffffffffffffffffffffffff021916908373ffffffffffffffffffffffffffffffffffffffff1602179055508173ffffffffffffffffffffffffffffffffffffffff168173ffffffffffffffffffffffffffffffffffffffff167f8be0079c531659141344cd1fd0a4f28419497f9722a3daafe3b4186f6b6457e060405160405180910390a35050565b60006012905090565b600073ffffffffffffffffffffffffffffffffffffffff168273ffffffffffffffffffffffffffffffffffffffff1603620002db576040517f08c379a0000000000000000000000000000000000000000000000000000000008152600401620002d290620007db565b60405180910390fd5b620002ef60008383620003e160201b60201c565b8060026000828254620003039190620007fd565b92505081905550806000808473ffffffffffffffffffffffffffffffffffffffff1673ffffffffffffffffffffffffffffffffffffffff16815260200190815260200160002060008282546200035a9190620007fd565b925050819055508173ffffffffffffffffffffffffffffffffffffffff16600073ffffffffffffffffffffffffffffffffffffffff167fddf252ad1be2c89b69c2b068fc378daa952ba7f163c4a11628f55a4df523b3ef83604051620003c191906200085a565b60405180910390a3620003dd60008383620003e660201b60201c565b5050565b505050565b505050565b828054620003f990620008a6565b90600052602060002090601f0160209004810192826200041d576000855562000469565b82601f106200043857805160ff191683800117855562000469565b8280016001018555821562000469579182015b82811115620004685782518255916020019190600101906200044b565b5b5090506200047891906200047c565b5090565b5b80821115620004975760008160009055506001016200047d565b5090565b7f4e487b7100000000000000000000000000000000000000000000000000000000600052601160045260246000fd5b60008160011c9050919050565b6000808291508390505b600185111562000529578086048111156200050157620005006200049b565b5b6001851615620005115780820291505b80810290506200052185620004ca565b9450620004e1565b94509492505050565b60008262000544576001905062000617565b8162000554576000905062000617565b81600181146200056d57600281146200057857620005ae565b600191505062000617565b60ff8411156200058d576200058c6200049b565b5b8360020a915084821115620005a757620005a66200049b565b5b5062000617565b5060208310610133831016604e8410600b8410161715620005e85782820a905083811115620005e257620005e16200049b565b5b62000617565b620005f78484846001620004d7565b925090508184048111156200061157620006106200049b565b5b81810290505b9392505050565b6000819050919050565b600060ff82169050919050565b600062000642826200061e565b91506200064f8362000628565b92506200067e7fffffffffffffffffffffffffffffffffffffffffffffffffffffffffffffffff848462000532565b905092915050565b600062000693826200061e565b9150620006a0836200061e565b9250817fffffffffffffffffffffffffffffffffffffffffffffffffffffffffffffffff0483118215151615620006dc57620006db6200049b565b5b828202905092915050565b620006f2816200061e565b82525050565b600082825260208201905092915050565b7f496e697469616c20737570706c79206f6620746f6b656e73206d696e74656400600082015250565b600062000741601f83620006f8565b91506200074e8262000709565b602082019050919050565b6000604082019050620007706000830184620006e7565b8181036020830152620007838162000732565b905092915050565b7f45524332303a206d696e7420746f20746865207a65726f206164647265737300600082015250565b6000620007c3601f83620006f8565b9150620007d0826200078b565b602082019050919050565b60006020820190508181036000830152620007f681620007b4565b9050919050565b60006200080a826200061e565b915062000817836200061e565b9250827fffffffffffffffffffffffffffffffffffffffffffffffffffffffffffffffff038211156200084f576200084e6200049b565b5b828201905092915050565b6000602082019050620008716000830184620006e7565b92915050565b7f4e487b7100000000000000000000000000000000000000000000000000000000600052602260045260246000fd5b60006002820490506001821680620008bf57607f821691505b602082108103620008d557620008d462000877565b5b50919050565b6123ed80620008eb6000396000f3fe608060405234801561001057600080fd5b50600436106101215760003560e01c80635e6ba549116100ad57806395d89b411161007157806395d89b41146102f6578063a457c2d714610314578063a9059cbb14610344578063dd62ed3e14610374578063f2fde38b146103a457610121565b80635e6ba5491461026457806370a0823114610282578063715018a6146102b257806379cc6790146102bc5780638da5cb5b146102d857610121565b806323b872dd116100f457806323b872dd146101ae578063313ce567146101de57806339509351146101fc57806340c10f191461022c57806342966c681461024857610121565b806306fdde0314610126578063095ea7b31461014457806318160ddd146101745780631c11fce214610192575b600080fd5b61012e6103c0565b60405161013b9190611591565b60405180910390f35b61015e6004803603810190610159919061164c565b610452565b60405161016b91906116a7565b60405180910390f35b61017c610475565b60405161018991906116d1565b60405180910390f35b6101ac60048036038101906101a7919061164c565b61047f565b005b6101c860048036038101906101c391906116ec565b6105e9565b6040516101d591906116a7565b60405180910390f35b6101e6610618565b6040516101f3919061175b565b60405180910390f35b6102166004803603810190610211919061164c565b610621565b60405161022391906116a7565b60405180910390f35b6102466004803603810190610241919061164c565b610658565b005b610262600480360381019061025d9190611776565b61074e565b005b61026c610843565b60405161027991906116d1565b60405180910390f35b61029c600480360381019061029791906117a3565b610853565b6040516102a991906116d1565b60405180910390f35b6102ba61089b565b005b6102d660048036038101906102d1919061164c565b610923565b005b6102e0610943565b6040516102ed91906117df565b60405180910390f35b6102fe61096d565b60405161030b9190611591565b60405180910390f35b61032e6004803603810190610329919061164c565b6109ff565b60405161033b91906116a7565b60405180910390f35b61035e6004803603810190610359919061164c565b610a76565b60405161036b91906116a7565b60405180910390f35b61038e600480360381019061038991906117fa565b610a99565b60405161039b91906116d1565b60405180910390f35b6103be60048036038101906103b991906117a3565b610b20565b005b6060600380546103cf90611869565b80601f01602080910402602001604051908101604052809291908181526020018280546103fb90611869565b80156104485780601f1061041d57610100808354040283529160200191610448565b820191906000526020600020905b81548152906001019060200180831161042b57829003601f168201915b5050505050905090565b60008061045d610c17565b905061046a818585610c1f565b600191505092915050565b6000600254905090565b610487610618565b600a61049391906119fc565b606461049f9190611a47565b6104af6104aa610943565b610853565b10156104e7576104e66104c0610943565b6104c8610618565b600a6104d491906119fc565b6103e86104e19190611a47565b610de8565b5b6104ef610618565b600a6104fb91906119fc565b600a6105079190611a47565b61050f610618565b600a61051b91906119fc565b826105269190611a47565b1115610567576040517f08c379a000000000000000000000000000000000000000000000000000000000815260040161055e90611b13565b60405180910390fd5b610597610572610943565b8361057b610618565b600a61058791906119fc565b846105929190611a47565b610f47565b3373ffffffffffffffffffffffffffffffffffffffff167f106ca50b5a6474402bbf91f8d0e2a7bccca10ad5f5544ffdf72d54c1cd17444b826040516105dd9190611ba5565b60405180910390a25050565b6000806105f4610c17565b90506106018582856111c6565b61060c858585610f47565b60019150509392505050565b60006012905090565b60008061062c610c17565b905061064d81858561063e8589610a99565b6106489190611bd3565b610c1f565b600191505092915050565b610660610c17565b73ffffffffffffffffffffffffffffffffffffffff1661067e610943565b73ffffffffffffffffffffffffffffffffffffffff16146106d4576040517f08c379a00000000000000000000000000000000000000000000000000000000081526004016106cb90611c75565b60405180910390fd5b6106fc826106e0610618565b600a6106ec91906119fc565b836106f79190611a47565b610de8565b3373ffffffffffffffffffffffffffffffffffffffff167f3b8e0b4f8fa4c38433babb0f7f9a13c0abecda9487c4e4a27309e4f526348334826040516107429190611ce1565b60405180910390a25050565b610756610c17565b73ffffffffffffffffffffffffffffffffffffffff16610774610943565b73ffffffffffffffffffffffffffffffffffffffff16146107ca576040517f08c379a00000000000000000000000000000000000000000000000000000000081526004016107c190611c75565b60405180910390fd5b6107f2336107d6610618565b600a6107e291906119fc565b836107ed9190611a47565b611252565b3373ffffffffffffffffffffffffffffffffffffffff167fb3f9d2eb344682dc700b01cb1657e7fec67a1a3cfcbda750a77380c40f4c1b2c826040516108389190611d5b565b60405180910390a250565b600061084e33610853565b905090565b60008060008373ffffffffffffffffffffffffffffffffffffffff1673ffffffffffffffffffffffffffffffffffffffff168152602001908152602001600020549050919050565b6108a3610c17565b73ffffffffffffffffffffffffffffffffffffffff166108c1610943565b73ffffffffffffffffffffffffffffffffffffffff1614610917576040517f08c379a000000000000000000000000000000000000000000000000000000000815260040161090e90611c75565b60405180910390fd5b6109216000611428565b565b6109358261092f610c17565b836111c6565b61093f8282611252565b5050565b6000600560009054906101000a900473ffffffffffffffffffffffffffffffffffffffff16905090565b60606004805461097c90611869565b80601f01602080910402602001604051908101604052809291908181526020018280546109a890611869565b80156109f55780601f106109ca576101008083540402835291602001916109f5565b820191906000526020600020905b8154815290600101906020018083116109d857829003601f168201915b5050505050905090565b600080610a0a610c17565b90506000610a188286610a99565b905083811015610a5d576040517f08c379a0000000000000000000000000000000000000000000000000000000008152600401610a5490611dfb565b60405180910390fd5b610a6a8286868403610c1f565b60019250505092915050565b600080610a81610c17565b9050610a8e818585610f47565b600191505092915050565b6000600160008473ffffffffffffffffffffffffffffffffffffffff1673ffffffffffffffffffffffffffffffffffffffff16815260200190815260200160002060008373ffffffffffffffffffffffffffffffffffffffff1673ffffffffffffffffffffffffffffffffffffffff16815260200190815260200160002054905092915050565b610b28610c17565b73ffffffffffffffffffffffffffffffffffffffff16610b46610943565b73ffffffffffffffffffffffffffffffffffffffff1614610b9c576040517f08c379a0000000000000000000000000000000000000000000000000000000008152600401610b9390611c75565b60405180910390fd5b600073ffffffffffffffffffffffffffffffffffffffff168173ffffffffffffffffffffffffffffffffffffffff1603610c0b576040517f08c379a0000000000000000000000000000000000000000000000000000000008152600401610c0290611e8d565b60405180910390fd5b610c1481611428565b50565b600033905090565b600073ffffffffffffffffffffffffffffffffffffffff168373ffffffffffffffffffffffffffffffffffffffff1603610c8e576040517f08c379a0000000000000000000000000000000000000000000000000000000008152600401610c8590611f1f565b60405180910390fd5b600073ffffffffffffffffffffffffffffffffffffffff168273ffffffffffffffffffffffffffffffffffffffff1603610cfd576040517f08c379a0000000000000000000000000000000000000000000000000000000008152600401610cf490611fb1565b60405180910390fd5b80600160008573ffffffffffffffffffffffffffffffffffffffff1673ffffffffffffffffffffffffffffffffffffffff16815260200190815260200160002060008473ffffffffffffffffffffffffffffffffffffffff1673ffffffffffffffffffffffffffffffffffffffff168152602001908152602001600020819055508173ffffffffffffffffffffffffffffffffffffffff168373ffffffffffffffffffffffffffffffffffffffff167f8c5be1e5ebec7d5bd14f71427d1e84f3dd0314c0f7b2291e5b200ac8c7c3b92583604051610ddb91906116d1565b60405180910390a3505050565b600073ffffffffffffffffffffffffffffffffffffffff168273ffffffffffffffffffffffffffffffffffffffff1603610e57576040517f08c379a0000000000000000000000000000000000000000000000000000000008152600401610e4e9061201d565b60405180910390fd5b610e63600083836114ee565b8060026000828254610e759190611bd3565b92505081905550806000808473ffffffffffffffffffffffffffffffffffffffff1673ffffffffffffffffffffffffffffffffffffffff1681526020019081526020016000206000828254610eca9190611bd3565b925050819055508173ffffffffffffffffffffffffffffffffffffffff16600073ffffffffffffffffffffffffffffffffffffffff167fddf252ad1be2c89b69c2b068fc378daa952ba7f163c4a11628f55a4df523b3ef83604051610f2f91906116d1565b60405180910390a3610f43600083836114f3565b5050565b600073ffffffffffffffffffffffffffffffffffffffff168373ffffffffffffffffffffffffffffffffffffffff1603610fb6576040517f08c379a0000000000000000000000000000000000000000000000000000000008152600401610fad906120af565b60405180910390fd5b600073ffffffffffffffffffffffffffffffffffffffff168273ffffffffffffffffffffffffffffffffffffffff1603611025576040517f08c379a000000000000000000000000000000000000000000000000000000000815260040161101c90612141565b60405180910390fd5b6110308383836114ee565b60008060008573ffffffffffffffffffffffffffffffffffffffff1673ffffffffffffffffffffffffffffffffffffffff168152602001908152602001600020549050818110156110b6576040517f08c379a00000000000000000000000000000000000000000000000000000000081526004016110ad906121d3565b60405180910390fd5b8181036000808673ffffffffffffffffffffffffffffffffffffffff1673ffffffffffffffffffffffffffffffffffffffff16815260200190815260200160002081905550816000808573ffffffffffffffffffffffffffffffffffffffff1673ffffffffffffffffffffffffffffffffffffffff16815260200190815260200160002060008282546111499190611bd3565b925050819055508273ffffffffffffffffffffffffffffffffffffffff168473ffffffffffffffffffffffffffffffffffffffff167fddf252ad1be2c89b69c2b068fc378daa952ba7f163c4a11628f55a4df523b3ef846040516111ad91906116d1565b60405180910390a36111c08484846114f3565b50505050565b60006111d28484610a99565b90507fffffffffffffffffffffffffffffffffffffffffffffffffffffffffffffffff811461124c578181101561123e576040517f08c379a00000000000000000000000000000000000000000000000000000000081526004016112359061223f565b60405180910390fd5b61124b8484848403610c1f565b5b50505050565b600073ffffffffffffffffffffffffffffffffffffffff168273ffffffffffffffffffffffffffffffffffffffff16036112c1576040517f08c379a00000000000000000000000000000000000000000000000000000000081526004016112b8906122d1565b60405180910390fd5b6112cd826000836114ee565b60008060008473ffffffffffffffffffffffffffffffffffffffff1673ffffffffffffffffffffffffffffffffffffffff16815260200190815260200160002054905081811015611353576040517f08c379a000000000000000000000000000000000000000000000000000000000815260040161134a90612363565b60405180910390fd5b8181036000808573ffffffffffffffffffffffffffffffffffffffff1673ffffffffffffffffffffffffffffffffffffffff1681526020019081526020016000208190555081600260008282546113aa9190612383565b92505081905550600073ffffffffffffffffffffffffffffffffffffffff168373ffffffffffffffffffffffffffffffffffffffff167fddf252ad1be2c89b69c2b068fc378daa952ba7f163c4a11628f55a4df523b3ef8460405161140f91906116d1565b60405180910390a3611423836000846114f3565b505050565b6000600560009054906101000a900473ffffffffffffffffffffffffffffffffffffffff16905081600560006101000a81548173ffffffffffffffffffffffffffffffffffffffff021916908373ffffffffffffffffffffffffffffffffffffffff1602179055508173ffffffffffffffffffffffffffffffffffffffff168173ffffffffffffffffffffffffffffffffffffffff167f8be0079c531659141344cd1fd0a4f28419497f9722a3daafe3b4186f6b6457e060405160405180910390a35050565b505050565b505050565b600081519050919050565b600082825260208201905092915050565b60005b83811015611532578082015181840152602081019050611517565b83811115611541576000848401525b50505050565b6000601f19601f8301169050919050565b6000611563826114f8565b61156d8185611503565b935061157d818560208601611514565b61158681611547565b840191505092915050565b600060208201905081810360008301526115ab8184611558565b905092915050565b600080fd5b600073ffffffffffffffffffffffffffffffffffffffff82169050919050565b60006115e3826115b8565b9050919050565b6115f3816115d8565b81146115fe57600080fd5b50565b600081359050611610816115ea565b92915050565b6000819050919050565b61162981611616565b811461163457600080fd5b50565b60008135905061164681611620565b92915050565b60008060408385031215611663576116626115b3565b5b600061167185828601611601565b925050602061168285828601611637565b9150509250929050565b60008115159050919050565b6116a18161168c565b82525050565b60006020820190506116bc6000830184611698565b92915050565b6116cb81611616565b82525050565b60006020820190506116e660008301846116c2565b92915050565b600080600060608486031215611705576117046115b3565b5b600061171386828701611601565b935050602061172486828701611601565b925050604061173586828701611637565b9150509250925092565b600060ff82169050919050565b6117558161173f565b82525050565b6000602082019050611770600083018461174c565b92915050565b60006020828403121561178c5761178b6115b3565b5b600061179a84828501611637565b91505092915050565b6000602082840312156117b9576117b86115b3565b5b60006117c784828501611601565b91505092915050565b6117d9816115d8565b82525050565b60006020820190506117f460008301846117d0565b92915050565b60008060408385031215611811576118106115b3565b5b600061181f85828601611601565b925050602061183085828601611601565b9150509250929050565b7f4e487b7100000000000000000000000000000000000000000000000000000000600052602260045260246000fd5b6000600282049050600182168061188157607f821691505b6020821081036118945761189361183a565b5b50919050565b7f4e487b7100000000000000000000000000000000000000000000000000000000600052601160045260246000fd5b60008160011c9050919050565b6000808291508390505b6001851115611920578086048111156118fc576118fb61189a565b5b600185161561190b5780820291505b8081029050611919856118c9565b94506118e0565b94509492505050565b60008261193957600190506119f5565b8161194757600090506119f5565b816001811461195d576002811461196757611996565b60019150506119f5565b60ff8411156119795761197861189a565b5b8360020a9150848211156119905761198f61189a565b5b506119f5565b5060208310610133831016604e8410600b84101617156119cb5782820a9050838111156119c6576119c561189a565b5b6119f5565b6119d884848460016118d6565b925090508184048111156119ef576119ee61189a565b5b81810290505b9392505050565b6000611a0782611616565b9150611a128361173f565b9250611a3f7fffffffffffffffffffffffffffffffffffffffffffffffffffffffffffffffff8484611929565b905092915050565b6000611a5282611616565b9150611a5d83611616565b9250817fffffffffffffffffffffffffffffffffffffffffffffffffffffffffffffffff0483118215151615611a9657611a9561189a565b5b828202905092915050565b7f596f752063616e20726571756573742061206d6178206f66203130205041432060008201527f617420612074696d652e00000000000000000000000000000000000000000000602082015250565b6000611afd602a83611503565b9150611b0882611aa1565b604082019050919050565b60006020820190508181036000830152611b2c81611af0565b9050919050565b7f5265717565737465642050414320546f6b656e2073656e7420746f207468652060008201527f676976656e206164647265737300000000000000000000000000000000000000602082015250565b6000611b8f602d83611503565b9150611b9a82611b33565b604082019050919050565b6000604082019050611bba60008301846116c2565b8181036020830152611bcb81611b82565b905092915050565b6000611bde82611616565b9150611be983611616565b9250827fffffffffffffffffffffffffffffffffffffffffffffffffffffffffffffffff03821115611c1e57611c1d61189a565b5b828201905092915050565b7f4f776e61626c653a2063616c6c6572206973206e6f7420746865206f776e6572600082015250565b6000611c5f602083611503565b9150611c6a82611c29565b602082019050919050565b60006020820190508181036000830152611c8e81611c52565b9050919050565b7f4164646974696f6e616c20746f6b656e73206d696e7465640000000000000000600082015250565b6000611ccb601883611503565b9150611cd682611c95565b602082019050919050565b6000604082019050611cf660008301846116c2565b8181036020830152611d0781611cbe565b905092915050565b7f546f6b656e206275726e65640000000000000000000000000000000000000000600082015250565b6000611d45600c83611503565b9150611d5082611d0f565b602082019050919050565b6000604082019050611d7060008301846116c2565b8181036020830152611d8181611d38565b905092915050565b7f45524332303a2064656372656173656420616c6c6f77616e63652062656c6f7760008201527f207a65726f000000000000000000000000000000000000000000000000000000602082015250565b6000611de5602583611503565b9150611df082611d89565b604082019050919050565b60006020820190508181036000830152611e1481611dd8565b9050919050565b7f4f776e61626c653a206e6577206f776e657220697320746865207a65726f206160008201527f6464726573730000000000000000000000000000000000000000000000000000602082015250565b6000611e77602683611503565b9150611e8282611e1b565b604082019050919050565b60006020820190508181036000830152611ea681611e6a565b9050919050565b7f45524332303a20617070726f76652066726f6d20746865207a65726f2061646460008201527f7265737300000000000000000000000000000000000000000000000000000000602082015250565b6000611f09602483611503565b9150611f1482611ead565b604082019050919050565b60006020820190508181036000830152611f3881611efc565b9050919050565b7f45524332303a20617070726f766520746f20746865207a65726f20616464726560008201527f7373000000000000000000000000000000000000000000000000000000000000602082015250565b6000611f9b602283611503565b9150611fa682611f3f565b604082019050919050565b60006020820190508181036000830152611fca81611f8e565b9050919050565b7f45524332303a206d696e7420746f20746865207a65726f206164647265737300600082015250565b6000612007601f83611503565b915061201282611fd1565b602082019050919050565b6000602082019050818103600083015261203681611ffa565b9050919050565b7f45524332303a207472616e736665722066726f6d20746865207a65726f20616460008201527f6472657373000000000000000000000000000000000000000000000000000000602082015250565b6000612099602583611503565b91506120a48261203d565b604082019050919050565b600060208201905081810360008301526120c88161208c565b9050919050565b7f45524332303a207472616e7366657220746f20746865207a65726f206164647260008201527f6573730000000000000000000000000000000000000000000000000000000000602082015250565b600061212b602383611503565b9150612136826120cf565b604082019050919050565b6000602082019050818103600083015261215a8161211e565b9050919050565b7f45524332303a207472616e7366657220616d6f756e742065786365656473206260008201527f616c616e63650000000000000000000000000000000000000000000000000000602082015250565b60006121bd602683611503565b91506121c882612161565b604082019050919050565b600060208201905081810360008301526121ec816121b0565b9050919050565b7f45524332303a20696e73756666696369656e7420616c6c6f77616e6365000000600082015250565b6000612229601d83611503565b9150612234826121f3565b602082019050919050565b600060208201905081810360008301526122588161221c565b9050919050565b7f45524332303a206275726e2066726f6d20746865207a65726f2061646472657360008201527f7300000000000000000000000000000000000000000000000000000000000000602082015250565b60006122bb602183611503565b91506122c68261225f565b604082019050919050565b600060208201905081810360008301526122ea816122ae565b9050919050565b7f45524332303a206275726e20616d6f756e7420657863656564732062616c616e60008201527f6365000000000000000000000000000000000000000000000000000000000000602082015250565b600061234d602283611503565b9150612358826122f1565b604082019050919050565b6000602082019050818103600083015261237c81612340565b9050919050565b600061238e82611616565b915061239983611616565b9250828210156123ac576123ab61189a565b5b82820390509291505056fea2646970667358221220cbd31d18662e9dcefc83b62590ae4e00467f35216cf912b13a76a196abff4a9664736f6c634300080e0033",
  "linkReferences": {},
  "deployedLinkReferences": {}
}